:100000000C943A000C9457000C9457000C94570031
:100010000C94A0000C947B020C9457000C94570095
:100020000C9457000C9457000C9457000C948000CB
:100030000C9457000C9457000C9459000C945700E2
:100040000C9457000C9457000C940F030C94570019
:100050000C9457000C9457000C9457000C945700C4
:100060000C9457000C9457006364696E6F7073753D
:1000700078585B0011241FBECFEFD8E0DEBFCDBFA4
:1000800011E0A0E0B1E0ECEBF7E102C005900D92C9
:10009000A237B107D9F721E0A2E7B1E001C01D9274
:1000A000A139B207E1F70E946F030C94DC0B0C94AA
:1000B00000001F920F920FB60F9211242F938F936F
:1000C0009F9388B190E2892788B9809177019091B8
:1000D0007801019690937801809377018091770160
:1000E000909178018B34914018F085B5887F85BD5B
:1000F0009F918F912F910F900FBE0F901F90189589
:100100001F920F920FB60F9211248F939F93EF932C
:10011000FF93E1E8F0E08081887F808381E0809335
:10012000730181E090E09093010180930001FF91C1
:10013000EF919F918F910F900FBE0F901F90189588
:100140001F920F920FB60F9211242F933F934F934C
:100150005F936F937F938F939F93AF93BF93CF934F
:10016000EF93FF93C6B18C2F8270C4702091000171
:10017000309101012130310591F5811116C01092A5
:10018000010110920001109285001092840080916C
:100190008100856080938100439A60E080E00E9446
:1001A000F50182E091E00E944002C11106C081E0A9
:1001B00090E09093010180930001FF91EF91CF9126
:1001C000BF91AF919F918F917F916F915F914F916F
:1001D0003F912F910F900FBE0F901F901895209177
:1001E000000130910101232B41F7811104C01092CD
:1001F000010110920001C111E0CF809181008A7F3E
:1002000080938100439881E090E090930101809376
:10021000000180938D01D1CFE0EBF0E0808183601D
:10022000808380818068808387E18093B300E1EBE5
:10023000F0E08081876080830895E1E8F0E08081CC
:1002400088608083EFE6F0E080818260808384E2D2
:1002500094EF909389008093880010928B00109205
:100260008A00089584B5826084BDEEE6F0E0808166
:10027000826080838FE487BD0895FF920F931F9360
:10028000CF93DF93CDB7DEB7A8970FB6F894DEBF54
:100290000FBECDBF81E00E94E30160E080E00E94DC
:1002A000F50181E191E00E94400287E191E09F9396
:1002B0008F938FE191E09F938F9385E291E09F93DD
:1002C0008F931F928FE0F82EFF928E01005F1F4FD9
:1002D0001F930F930E94C90560E081E00E94F50121
:1002E000C8010E9440022FEF8DE399E42150804025
:1002F0009040E1F700C0000081E00E94E3014091DE
:100300007A0150917B0120918B0130918C01809179
:100310007501909176015F934F933F932F939F9335
:100320008F938BE291E09F938F931F92FF920F50D8
:1003300011091F930F930E94C90560E080E00E949D
:10034000F501C8010E94400260E081E00E94F501D1
:1003500084E690E00E948B0B90E090938A0180935A
:1003600089018091890190918A019F938F938AE3FB
:1003700091E09F938F931F928AE08F93025E1F4FAD
:100380001F930F930E94C905C8010E9440020FB637
:10039000F894DEBF0FBECDBFA8960FB6F894DEBFAF
:1003A0000FBECDBFDF91CF911F910F91FF900895A8
:1003B0009BB19F709BB99BB1807F892B8BB9299A88
:1003C000299A29980895CF93C82F28980E94D80178
:1003D0008C2F8295807F0E94D8018FE39FE1019747
:1003E000F1F700C00000CF910895811104C080E8AA
:1003F000860F0C94E30180ECFBCF8AB1806F8AB941
:1004000084B1836084B922988FE59AEE0197F1F761
:1004100000C0000080E30E94D8018FE19EE40197B4
:10042000F1F700C0000080E30E94D8018FED91E059
:100430000197F1F700C0000080E30E94D80180E23C
:100440000E94D8018FE39FE10197F1F700C00000FF
:1004500088E20E94E3018FE00C94E301CF93C82F60
:10046000289A0E94D8018C2F8295807F0E94D80103
:100470008FE39FE10197F1F700C00000CF9108954D
:10048000CF93DF93EC018991811103C0DF91CF916C
:1004900008950E942E02F7CF89B1982F98709093FB
:1004A0008E018470809372018091720181110BC062
:1004B00080918E01811107C01092740180917401A6
:1004C00080937C01089580917201811108C0809110
:1004D0008E01882321F081E080937401EFCF809119
:1004E0007201882331F080918E01811102C082E077
:1004F000F3CF83E0F1CF1F920F920FB60F9211242A
:100500008F939F9389B1982F987090938E018470E8
:100510008093720180917401811110C080918E01CD
:10052000882321F081E080937C0159C08091720181
:100530008823F1F082E080937C0111C080917401E6
:10054000813009F042C080917201882311F083E06C
:10055000EACF80918E0181110BC010927C018091B5
:10056000890190918A01019790938A018093890172
:100570008091890190918A018436910530F083E65B
:1005800090E090938A0180938901809189019091F4
:100590008A01892B31F481E090E090938A01809365
:1005A000890190917C0180917401981739F081E064
:1005B0008093840180917C01809374019F918F913D
:1005C0000F900FBE0F901F9018958091740182308C
:1005D00099F480917201811108C010927C01809180
:1005E000890190918A010196BFCF80918E01882365
:1005F00009F4BECF83E09FCF80917201811102C0C8
:1006000081E099CF80918E018111B2CF82E08BCFB2
:100610009091C00095FFFCCF8093C60008951F9273
:100620000F920FB60F9211242F933F938F939F93A6
:10063000EF93FF938091C6008B35F1F481E08093B6
:100640007901109286011092850110927D0110921D
:100650007F0110928001109281011092820110920C
:100660008301FF91EF919F918F913F912F910F9077
:100670000FBE0F901F9018958D3571F42091850154
:1006800030918601232B41F090917901992321F03B
:1006900081E080937D01E5CF90ED980F9A30E0F4F2
:1006A000909179019923C1F02091850130918601C3
:1006B0002530310588F4E0918501F0918601E158FB
:1006C000FE4F8083809185019091860101969093E1
:1006D000860180938501C5CF10927901C2CFCF9357
:1006E000DF93CDB7DEB763970FB6F894DEBF0FBECA
:1006F000CDBF8091680082608093680080916C001B
:10070000866280936C0080916800846080936800AA
:1007100080916D008C6080936D008091C100806835
:100720008093C10087E690E09093C5008093C40059
:1007300078948091C10088618093C10086E08093A5
:10074000C2008AB18C608AB987B1886387B984B1E5
:10075000886384B98BB18C608BB934980E94FD0199
:100760000E940C010E941D010E9432010E944C0255
:100770000E943D0181E090E090930101809300018F
:100780002D9838E8A32E33E1B32E0AE010E0AE0135
:100790004F5F5F4F7A016E015EE0C50ED11C83E2B0
:1007A000282E312C96E6492E91E0592E2AE3622E0E
:1007B00021E0722E80917301882389F010927301D9
:1007C00060E080E00E94F50183E491E00E94400235
:1007D000439881E090E09093010180930001809123
:1007E0008D01882309F4D6C010928D018091840078
:1007F000909185006FE070E00E94B50570937601DE
:10080000609375016091750170917601C5010E9438
:10081000B50570938C0160938B01609175017091A7
:100820007601C5010E94B50590937B0180937A0102
:1008300080917A0190917B01E0918B01F0918C0184
:100840002091750130917601B8010E94B5059F9302
:100850008F93FF93EF933F932F93E4E5F1E0FF93A2
:10086000EF931F924DE04F93FF92EF920E94C905C4
:1008700060E080E00E94F501C7010E9440022091E3
:100880008B0130918C018091890190918A010FB682
:10089000F894DEBF0FBECDBF8217930738F41092D5
:1008A00078011092770185B5846085BD20918B0118
:1008B00030918C0147E1429FC001439F900D11246C
:1008C00064E670E00E94B505C101861B970B97FD99
:1008D00080E08093B30010928B0010928A00809188
:1008E0008F019091900120918B0130918C01B80182
:1008F0000E94B5056217730710F42D9A21C08091EC
:100900008F019091900120918B0130918C01B80161
:100910000E94B5052617370718F42C9A2D9811C098
:1009200080918F019091900120917A0130917B010B
:10093000B8010E94B5058217930709F0B3C02D983E
:100940002C9880917A0190917B0120918B013091BC
:100950008C01B8010E94B5059F938F933F932F930D
:100960005F924F921F9286E08F93DF92CF920E9408
:10097000C9058BE50E94080346010FB6F894DEBF57
:100980000FBECDBFF40181914F018111AAC08DE549
:100990000E94080380918401882369F110928401E8
:1009A0006091890170918A0184E690E00E94930B26
:1009B00067E081E00E94F5018FE091E00E94400233
:1009C0008091890190918A019F938F937F926F927A
:1009D0001F928AE08F93FF92EF920E94C90560E018
:1009E00081E00E94F501C7010E9440020FB6F89411
:1009F000DEBF0FBECDBF80917D01882309F4DACE22
:100A000010927D016BE081E00E94F5018DE091E0A4
:100A10000E9440028FE891E09F938F938EE691E0D1
:100A20009F938F938FE791E09F938F930E94F90597
:100A300080918F019091900120918F0130919001D0
:100A4000B8010E94B5059F938F93C901B8010E9418
:100A5000B5057F936F938BE691E09F938F931F92E1
:100A600085E08F93FF92EF920E94C90568E081E0D4
:100A70000E94F501C7010E94400280918F01909170
:100A8000900120918B0130918C01B8010E94B50535
:100A90000FB6F894DEBF0FBECDBF6217730720F507
:100AA0002D9A42C080918F019091900120917A01FE
:100AB00030917B01B8010E94B5058217930708F4B5
:100AC0001CCF80918F019091900120917A013091FB
:100AD0007B01B8010E94B5052817390708F031CF0E
:100AE0001CCF0E9408034ECF80918F0190919001FE
:100AF00020918B0130918C01B8010E94B505261719
:100B0000370718F42C9A2D984ACE80918F01909136
:100B1000900120917A0130917B01B8010E94B505C6
:100B20008217930719F42D982C9839CE80918F0154
:100B30009091900120917A0130917B01B8010E943F
:100B4000B5058217930708F4ABCF80918F01909180
:100B5000900120917A0130917B01B8010E94B50586
:100B60002817390708F01BCECDCFAA1BBB1B51E1BC
:100B700007C0AA1FBB1FA617B70710F0A61BB70B0D
:100B8000881F991F5A95A9F780959095BC01CD01B2
:100B90000895AEE0B0E0EFECF5E00C94B30B0D89F6
:100BA0001E898F89988D26E02C831A83098397FFED
:100BB00002C080E090E801979E838D83AE01455E80
:100BC0005F4F698D7A8DCE0101960E9412064D818C
:100BD0005E8157FD0AC02F813885421753070CF4F8
:100BE0009A01020F131FF80110822E96E4E00C9474
:100BF000CF0BAEE0B0E0EFEFF5E00C94B50B85E085
:100C00008C838B899C899A838983AE01495E5F4F6F
:100C10006D897E89CE0101960E9477092E96E2E0C9
:100C20000C94D10BABE0B0E0E8E1F6E00C94A50B3E
:100C30007C013B018A01FC0117821682838181FFBE
:100C4000C8C1CE0101965C01F7019381F30193FDC8
:100C5000859193FF81913F01882309F453C1853227
:100C600039F493FD859193FF81913F01853229F4F9
:100C7000B70190E00E94E20AE7CF912C212C312CA1
:100C8000FFE1F31538F08B3211F190F4803209F165
:100C9000833229F137FC3CC020ED280F2A3050F573
:100CA00036FE20C08AE0989E200D1124922E06C0A8
:100CB0008D3291F0803371F7689430F8F30193FD31
:100CC000859193FF81913F018111DACF21C0689412
:100CD00031F8689432F8F2CF689433F8EFCF689423
:100CE00034F8ECCFEAE02E9E200D1124222E6894D9
:100CF00035F8E4CF8E3229F436FC04C1689436F816
:100D0000DDCF8C3619F4689437F8D8CF8836B1F235
:100D1000982F9F7D95549330E0F08336A1F183376F
:100D2000C1F1833509F063C02801F2E04F0E511C78
:100D3000F801C080D180692D70E036FC02C06FEFF1
:100D40007FEFC6010E94900A4C01689437F8820137
:100D50000AC00C5F1F4FFFE3F98388248394912C12
:100D60006501E89437F833FE2DC0522C81149104AC
:100D700071F5552009F468CFB70180E290E00E9438
:100D8000E20A5A94F6CFF801808189830E5F1F4FE3
:100D9000E4CF2801F2E04F0E511CF801C080D18051
:100DA000692D70E036FC02C06FEF7FEFC6010E9434
:100DB0009B0A4C018201D5CFB70180E290E00E94EE
:100DC000E20A2A942814190409F0B0F7CECFF601EC
:100DD00037FC859137FE81916F01B70190E00E9449
:100DE000E20A51105A94F1E08F1A9108BFCF84366D
:100DF00019F0893609F077C0F80137FE6BC06081C1
:100E00007181828193810C5F1F4FF32DFF763F2EFE
:100E100097FF09C090958095709561957F4F8F4F92
:100E20009F4F689437F82AE030E0A5010E942A0B12
:100E3000C82ECA188C2C432C36FE0CC0E89440F8FF
:100E4000C91440F434FE05C032FC03C0F32DFE7E0D
:100E50004F2E892C44FE95C0FE01EC0DF11D8081C2
:100E6000803309F087C0242D297E422E842D88707E
:100E7000582E43FC95C040FE8FC09C2C821418F461
:100E80002C0C922C981844FE91C0B70180E390E09E
:100E90000E94E20A42FE09C088E790E041FE02C0DB
:100EA00088E590E0B7010E94E20AC91408F48AC0FC
:100EB000CA94D12C9FEFC91AD90ACA0CDB1CF601BF
:100EC00082916F01B70190E00E94E20AAC14BD0468
:100ED000B1F74FCF60817181072E000C880B990B01
:100EE0000E5F1F4F92CFD32CE894D4F82AE030E065
:100EF000853739F1232D297FD22E8F3601F148F421
:100F00008835A9F0F701868197812B96E2E10C9450
:100F1000C10B803749F08837A9F7D4FE02C0689426
:100F2000D2F820E130E00DC06894D4F8F6CF34FE5A
:100F300003C0822F8660D82E20E132E002C028E074
:100F400030E0F801D7FE0FC060817181828193810A
:100F50000C5F1F4FA5010E942A0BC82ECA183D2CFA
:100F6000E89437F867CF6081718190E080E00E5F90
:100F70001F4FF0CF42FC02C0839478CF83948394B8
:100F800075CF842D867809F471CFF6CFB70180E252
:100F900090E00E94E20A83948214C0F3512C73CF34
:100FA000522C5818821408F46ECFF8CF842D86780E
:100FB00009F47BCF8BE241FE80E247FC8DE2B70172
:100FC00090E071CFB70180E390E00E94E20A9A942A
:100FD0006CCF8FEF9FEF99CF20FD09C0FC0123FD5F
:100FE00005C022FF02C0738362835183408308954A
:100FF00044FD17C046FD1DC0DB01FC01AA0FBB1F4D
:10100000EE1FFF1F1094D1F76A0F7B1F8E1F9F1FCB
:10101000660F771F881F991F620F711D811D911D1B
:10102000089533E0660F771F881F991F3150D1F75D
:10103000F3CF34E0F7CF0F931F93CF93DF938C015F
:10104000C8010E94A60AEC0197FD08C00E947C0A14
:10105000892BB1F7B801CE010E94120BCE01DF91AE
:10106000CF911F910F9108958F929F92AF92BF924F
:10107000EF92FF920F931F93CF93DF938C01D62FA4
:101080007A01B22E0E94A60A9C0133272B32310529
:1010900029F02D323105A9F46894B7F8D15061F4E4
:1010A00080E0DF91CF911F910F91FF90EF90BF9063
:1010B000AF909F908F900895C8010E94A60A97FD57
:1010C000EFCFCB2DCD7F2B2D2073F9F48033E9F4B6
:1010D000AA24AA94AD0E89F0C8010E94A60A97FD21
:1010E0000CC0282F2F7D283561F4C264D25029F01E
:1010F000C8010E94A60A97FF08C0812C912C5401B8
:101100001BC0B6FE2BC0C260DA2D812C912C54017D
:1011100020ED280F283028F1C4FD09C02A3008F13D
:10112000C6FF05C02F7D3FEE320F3630C8F0B80144
:101130000E94120BC1FFB4CFC7FF08C0B094A094A7
:1011400090948094811C911CA11CB11C2C2FB50182
:10115000A401C7010E94EC0781E0A3CFC261D4CFF4
:1011600027504C2FC501B4010E94F8074B015C01C8
:10117000C260D15009F3C8010E94A60A97FFC8CFE8
:10118000D9CFA0E2B0E0E7ECF8E00C94AA0B5C0148
:10119000962E7A01CE0101966C0180E2F601119241
:1011A0008A95E9F7F501B381890130E020E0712CDF
:1011B000812CA0E041E050E0F801B3FD8591B3FF40
:1011C0008191982F8F01811107C010E000E0C801C4
:1011D000A096EDE00C94C60B8E3519F4211531055F
:1011E00041F1A21713064CF48D3549F18D3229F4E3
:1011F000811006C0882483941DC0882009F464C02F
:10120000E92FE695E695E695EC0DFD2DF11D892F6C
:101210008770BA0101C0660F8A95EAF78081682B52
:101220006083791651F0971510F49F5FE9CF9150C4
:10123000E7CFA1E02F5F3F4FBFCF812CFBCF8820AE
:1012400019F08E8180628E83AA2359F0F6019E01E7
:101250002F5D3F4F8081809580833196E217F307A1
:10126000C9F788248394C5010E94A60A97FD16C079
:10127000E82FE695E695E695EC0DFD2DF11D208114
:1012800030E0AC014770552702C0359527954A9547
:10129000E2F720FD06C0B5010E94120B882069F01C
:1012A00094CFE114F10429F0F7018083C70101967E
:1012B0007C019A94812C9110D6CFE114F10409F4A9
:1012C00086CFF701108283CFE82FE695E695E69565
:1012D000EC0DFD2DF11D982F9770BA0101C0660F1E
:1012E0009A95EAF79081692B6083782EA3CFB0E0BE
:1012F000A0E0EDE7F9E00C94A80B6C01EB015A01BA
:10130000FC0117821682512CF601E380FE01E3FCFA
:101310008591E3FE8191182FEF018823E9F090E099
:101320000E947C0A892B21F0C6010E941B08ECCF89
:10133000153241F4FE01E3FC1591E3FE1191EF013A
:10134000153269F4C6010E94A60A97FD8EC01817CF
:10135000D9F2B6010E94120B852D90E08AC000E000
:101360001A3231F4E3FC1591E3FE1191EF0101E033
:10137000F12C20ED210F2A3048F101FF37C0FF206A
:1013800059F31836B1F11C3609F43DC0112321F38D
:10139000612F70E088E690E00E94850A892BE1F2D7
:1013A000912C812C00FD06C0F50180809180C50143
:1013B00002965C011E3679F5F6014681578170E090
:1013C00060E0202FC4010E94EC079ECF02606F2DC9
:1013D00070E090E080E040E20E94F807F62EFE0107
:1013E000E3FC1591E3FE1191EF01C3CFFF24FA94C2
:1013F000C8CFFE01E3FC1591E3FE1191EF01183611
:1014000009F0C4CF08600460FE01E3FC1591E3FE1F
:101410001191EF01BBCF1336C1F401FD02C0FF24CF
:10142000F394C6010E94A60A97FD1FC0811491047F
:1014300029F0F4018083C40101964C01FA94F11063
:10144000F0CF00FD61CF53945FCF1B35B9F49E01FF
:10145000A4016F2DC6010E94C108EC01892B89F7F8
:10146000F6018381807309F477CF8FEF9FEF5110DE
:1014700073CFCDB7DEB7EFE00C94C40BC6010E946A
:101480001B0897FDF2CF1F36A9F130F4143641F056
:10149000193639F0006405C01337B9F01537D1F7A4
:1014A0000062202FA4016F2DC6010E943408811113
:1014B000C8CFD6CF8114910429F0F4016082C40111
:1014C00001964C01FA94FF2071F0C6010E94A60A11
:1014D0003C0197FD08C00E947C0A892B59F3B60194
:1014E000C3010E94120B8114910409F4AACFF401E4
:1014F0001082A7CF0061D5CF91110C94880B803258
:1015000019F089508550C8F70895FC01059006161A
:1015100021F00020D9F7C00108953197CF01089537
:10152000FC010590615070400110D8F780959095AE
:101530008E0F9F1F0895FC016150704001900110B3
:10154000D8F7809590958E0F9F1F0895CF93DF93C6
:10155000EC012B8120FF1AC026FF0CC02F7B2B83B0
:101560008E819F8101969F838E838A8190E0DF9197
:10157000CF91089522FF18C0E881F9818081082E5B
:10158000000C990B009729F420622B838FEF9FEFBB
:10159000EECF3196F983E8832E813F812F5F3F4F55
:1015A0003F832E839927E3CFEA85FB85099597FF33
:1015B000F3CF2B81019621F080E2822B8B83E6CF43
:1015C00080E1FBCF0F931F93CF93DF93182F092F49
:1015D000EB018B8181FD09C01FEF0FEF812F902F51
:1015E000DF91CF911F910F91089582FF14C02E813A
:1015F0003F818C819D81281739073CF4E881F9816E
:10160000CF0101969983888310838E819F810196F3
:101610009F838E83E3CFE885F985812F0995892BF8
:10162000A1F3DACFFB01238120FF11C026FD0FC0FB
:101630008F3F980771F082832F7D2064238326815A
:1016400037812150310937832683992708958FEFF9
:101650009FEF0895FA01AA27283051F1203181F136
:10166000E8946F936E7F6E5F7F4F8F4F9F4FAF4FAA
:10167000B1E03ED0B4E03CD0670F781F891F9A1FBD
:10168000A11D680F791F8A1F911DA11D6A0F711D71
:10169000811D911DA11D20D009F468943F912AE07D
:1016A000269F11243019305D3193DEF6CF01089565
:1016B000462F4770405D4193B3E00FD0C9F7F6CF96
:1016C000462F4F70405D4A3318F0495D31FD40525E
:1016D000419302D0A9F7EACFB4E0A69597958795F4
:1016E00077956795BA95C9F70097610571050895D3
:1016F0009B01AC010A2E069457954795379527957F
:10170000BA95C9F7620F731F841F951FA01D089516
:10171000992788270895F999FECF92BD81BDF89A3F
:10172000992780B50895262FF999FECF92BD81BDE6
:10173000F89A019700B4021639F01FBA20BD0FB60F
:10174000F894FA9AF99A0FBE08952F923F924F9209
:101750005F926F927F928F929F92AF92BF92CF9241
:10176000DF92EF92FF920F931F93CF93DF93CDB74A
:10177000DEB7CA1BDB0B0FB6F894DEBF0FBECDBFC2
:1017800009942A88398848885F846E847D848C8493
:101790009B84AA84B984C884DF80EE80FD800C819C
:1017A0001B81AA81B981CE0FD11D0FB6F894DEBF7F
:0C17B0000FBECDBFED010895F894FFCFEF
:1017BC00010074696D696E672E2E20202020202078
:1017CC0000416C696E650050726F6A656374004508
:1017DC0045313039002573202573002533646D7332
:1017EC00203D2025752E253175004D41583D202575
:1017FC0032640074696D6520657870697265642067
:10180C00202020002533646D73203D2025752E2566
:10181C00752020202000257525750025752E257531
:02182C000000BA
:00000001FF
